:100000000C942A000C94FF020C943F000C943F00C7
:100010000C943F000C943F000C943F000C943F0064
:100020000C943F000C943F000C943F000C943F0054
:100030000C943F000C943F000C943F000C943F0044
:100040000C943F000C943F000C943F000C943F0034
:100050000C943F0011241FBECFE5D8E0DEBFCDBF1A
:1000600010E0A0E6B0E0E2E2F7E002C005900D92F9
:10007000AE36B107D9F70E94BF020C948F030C94DF
:10008000000087B1806C87B986B1876886B908950A
:1000900097B1907E8F71892B87B986B1806486B9BC
:1000A000349BFECF86B1806186B924B185B190E0E2
:1000B000982F8827822B08954423B9F1413009F005
:1000C0006BC0813089F028F08230C9F0833011F1A3
:1000D00008952AB381E090E002C0880F991F6A95C5
:1000E000E2F7822B8ABB089527B381E090E002C03B
:1000F000880F991F6A95E2F7822B87BB089524B376
:1001000081E090E002C0880F991F6A95E2F7822B88
:1001100084BB089521B381E090E002C0880F991F4D
:100120006A95E2F7822B81BB0895813091F028F027
:100130008230D9F0833029F108952AB381E090E02C
:1001400002C0880F991F6A95E2F7809582238ABBC7
:10015000089527B381E090E002C0880F991F6A9547
:10016000E2F78095822387BB089524B381E090E075
:1001700002C0880F991F6A95E2F78095822384BB9D
:10018000089521B381E090E002C0880F991F6A951D
:10019000E2F78095822381BB08954423B9F1413071
:1001A00009F06BC0813089F028F08230C9F08330CB
:1001B00011F108952BB381E090E002C0880F991FE0
:1001C0006A95E2F7822B8BBB089528B381E090E01B
:1001D00002C0880F991F6A95E2F7822B88BB0895A9
:1001E00025B381E090E002C0880F991F6A95E2F77D
:1001F000822B85BB089522B381E090E002C0880F76
:10020000991F6A95E2F7822B82BB0895813091F0A5
:1002100028F08230D9F0833029F108952BB381E0A2
:1002200090E002C0880F991F6A95E2F780958223BB
:100230008BBB089528B381E090E002C0880F991F1E
:100240006A95E2F78095822388BB089525B381E003
:1002500090E002C0880F991F6A95E2F7809582238B
:1002600085BB089522B381E090E002C0880F991FFA
:100270006A95E2F78095822382BB08958FB78068E4
:100280008FBF08950E943E018BB780648BBF85B7F6
:10029000816085BF85B7826085BF0895CF93C82FE1
:1002A00040E061E081E00E94CD0040E062E081E05A
:1002B0000E94CD0040E063E081E00E94CD008BB35E
:1002C0009C2F907F8F70892B8BBB41E063E081E096
:1002D0000E94CD008FE99FE00197F1F700C0000078
:1002E00040E063E081E00E94CD0020E1C29FC001B8
:1002F00011249BB39F70892B8BBB41E063E081E0AD
:100300000E94CD008FE99FE00197F1F700C0000047
:1003100040E063E081E00E94CD008FE19EE4019720
:10032000F1F700C00000CF91089541E061E081E065
:100330000E945C0041E062E081E00E945C0041E0DC
:1003400063E081E00E945C0041E064E080E00E94A4
:100350005C0041E065E080E00E945C0041E066E016
:1003600080E00E945C0041E067E080E00E945C0069
:100370002FEF81EE94E0215080409040E1F700C0E3
:10038000000083E30E944E0182E30E944E0188E256
:100390000E944E018CE00E944E0181E00E944E01BD
:1003A00086E00E944E0182E00E944E010895CF93A4
:1003B000C82F41E061E081E00E94CD0040E062E0B2
:1003C00081E00E94CD0040E063E081E00E94CD002A
:1003D0008BB39C2F907F8F70892B8BBB41E063E0A8
:1003E00081E00E94CD008FE99FE00197F1F700C006
:1003F000000040E063E081E00E94CD0020E1C29F68
:10040000C00111249BB39F70892B8BBB41E063E03B
:1004100081E00E94CD008FE99FE00197F1F700C0D5
:10042000000040E063E081E00E94CD008FE19EE4A7
:100430000197F1F700C00000CF9108950F931F932B
:10044000CF938C01C0E003C00E94D701CF5FF801B9
:10045000EC0FF11D80818111F7CFCF911F910F918A
:10046000089581E00E944E0108958F929F92AF926D
:10047000BF92CF92DF92EF92FF926B017C019923A2
:100480005CF48DE20E94D701F094E094D094C09483
:10049000C11CD11CE11CF11C61E070E080E090E027
:1004A00024C0DC01CB01880F991FAA1FBB1F4C0180
:1004B0005D01880C991CAA1CBB1C880C991CAA1CE9
:1004C000BB1C880E991EAA1EBB1EC701B6012AE0DE
:1004D00030E040E050E00E944E03680D791D8A1D17
:1004E0009B1DC22ED32EE42EF52E1C141D041E04BB
:1004F0001F04BCF212C02AE030E040E050E00E944D
:100500004E03C22ED32EE42EF52E80E3860F0E94DA
:10051000D7016C2D7D2D8E2D9F2D623071058105AB
:1005200091054CF7FF90EF90DF90CF90BF90AF9088
:100530009F908F90089541E060E083E00E945C000E
:10054000089541E060E083E00E94CD00089540E01E
:1005500060E083E00E94CD00089541E061E083E027
:100560000E945C00089541E061E083E00E94CD00BC
:10057000089540E061E083E00E94CD0008950E946C
:100580009B020E94AD020E9495010E9441000E94C0
:1005900042010E942B032FEF83ED90E32150804016
:1005A0009040E1F700C0000081E00E944403C82FA2
:1005B0008823D1F30E943102C13319F40E94A102B1
:1005C000F3CFC23319F40E94A702EECFC33319F45C
:1005D0000E94B302E9CFC43319F40E94B902E4CFF8
:1005E000C53311F781E00E9448009695879596954E
:1005F0008795BC0180E090E00E943502D5CF1F9224
:100600000F920FB60F9211242F933F934F935F9346
:100610006F937F938F939F93AF93BF93EF93FF93CA
:100620000E94310280E690E00E941E020E94A70212
:100630000E94B902FF91EF91BF91AF919F918F916D
:100640007F916F915F914F913F912F910F900FBECE
:100650000F901F90189540E064E081E00E945C00DC
:1006600040E065E081E00E945C0041E066E081E0FE
:100670000E945C0040E067E081E00E945C0080E452
:1006800090E09EB98DB9089590E090BB8FB98EB17E
:100690009FB187FFFCCF8FB190B30895052E97FBD4
:1006A0001EF400940E94650357FD07D00E946D035D
:1006B00007FC03D04EF40C9465035095409530959B
:1006C00021953F4F4F4F5F4F0895909580957095BE
:1006D00061957F4F8F4F9F4F0895A1E21A2EAA1B5D
:1006E000BB1BFD010DC0AA1FBB1FEE1FFF1FA217E2
:1006F000B307E407F50720F0A21BB30BE40BF50BDF
:10070000661F771F881F991F1A9469F76095709567
:10071000809590959B01AC01BD01CF010895F8949F
:02072000FFCF09
:0E072200526573657474696E6720416C6C00DB
:00000001FF
