:100000000C942A000C943F000C943F000C943F0089
:100010000C943F000C943F000C943F000C943F0064
:100020000C943F000C943F000C943F000C943F0054
:100030000C943F000C943F000C943F000C943F0044
:100040000C943F000C943F000C943F000C943F0034
:100050000C943F0011241FBECFE5D8E0DEBFCDBF1A
:1000600010E0A0E6B0E0EEE0F5E002C005900D92F1
:10007000A439B107D9F70E940A020C9485020C94A6
:1000800000004423B9F1413009F06BC0813089F0A0
:1000900028F08230C9F0833011F108952AB381E04D
:1000A00090E002C0880F991F6A95E2F7822B8ABB05
:1000B000089527B381E090E002C0880F991F6A95E8
:1000C000E2F7822B87BB089524B381E090E002C061
:1000D000880F991F6A95E2F7822B84BB089521B39C
:1000E00081E090E002C0880F991F6A95E2F7822BA9
:1000F00081BB0895813091F028F08230D9F08330AF
:1001000029F108952AB381E090E002C0880F991F79
:100110006A95E2F7809582238ABB089527B381E030
:1001200090E002C0880F991F6A95E2F780958223BC
:1001300087BB089524B381E090E002C0880F991F27
:100140006A95E2F78095822384BB089521B381E00C
:1001500090E002C0880F991F6A95E2F7809582238C
:1001600081BB08954423B9F1413009F06BC081305F
:1001700089F028F08230C9F0833011F108952BB353
:1001800081E090E002C0880F991F6A95E2F7822B08
:100190008BBB089528B381E090E002C0880F991FBF
:1001A0006A95E2F7822B88BB089525B381E090E041
:1001B00002C0880F991F6A95E2F7822B85BB0895CC
:1001C00022B381E090E002C0880F991F6A95E2F7A0
:1001D000822B82BB0895813091F028F08230D9F0D3
:1001E000833029F108952BB381E090E002C0880F9D
:1001F000991F6A95E2F7809582238BBB089528B3F7
:1002000081E090E002C0880F991F6A95E2F780951F
:10021000822388BB089525B381E090E002C0880F57
:10022000991F6A95E2F78095822385BB089522B3D2
:1002300081E090E002C0880F991F6A95E2F78095EF
:10024000822382BB0895CF93C82F40E061E081E014
:100250000E94B20040E062E081E00E94B20040E013
:1002600063E081E00E94B2008BB39C2F907F8F707F
:10027000892B8BBB41E063E081E00E94B2008FE9F3
:100280009FE00197F1F700C0000040E063E081E0EB
:100290000E94B20020E1C29FC00111249BB39F7055
:1002A000892B8BBB41E063E081E00E94B2008FE9C3
:1002B0009FE00197F1F700C0000040E063E081E0BB
:1002C0000E94B2008FE19EE40197F1F700C00000A8
:1002D000CF91089541E061E081E00E94410041E05A
:1002E00062E081E00E94410041E063E081E00E9421
:1002F000410041E064E080E00E94410041E065E0AF
:1003000080E00E94410041E066E080E00E94410000
:1003100041E067E080E00E9441002FEF81EE94E031
:10032000215080409040E1F700C0000083E30E942C
:10033000230182E30E94230188E20E9423018CE0D2
:100340000E94230181E00E94230186E00E94230194
:1003500082E00E9423010895CF93C82F41E061E01D
:1003600081E00E94B20040E062E081E00E94B200C1
:1003700040E063E081E00E94B2008BB39C2F907F4D
:100380008F70892B8BBB41E063E081E00E94B2005B
:100390008FE99FE00197F1F700C0000040E063E0C3
:1003A00081E00E94B20020E1C29FC00111249BB3F2
:1003B0009F70892B8BBB41E063E081E00E94B2001B
:1003C0008FE99FE00197F1F700C0000040E063E093
:1003D00081E00E94B2008FE19EE40197F1F700C036
:1003E0000000CF9108950F931F93CF938C01C0E02D
:1003F00003C00E94AC01CF5FF801EC0FF11D8081BA
:100400008111F7CFCF911F910F91089581E00E9444
:10041000230108950E9470020E946A010E9447020F
:100420000E9460022FEF83ED90E3215080409040C6
:10043000E1F700C000000E948102C82F8823D9F391
:100440000E9466020E940602C13329F480E690E011
:100450000E94F301F0CFC23329F489E690E00E94B4
:10046000F301E9CFC33329F483E790E00E94F3015D
:10047000E2CFC43329F48CE790E00E94F301DBCF94
:10048000C533C9F686E890E00E94F301D4CF41E07D
:1004900064E081E00E94410041E065E081E00E946B
:1004A000410040E066E081E00E94410041E067E0F9
:1004B00081E00E94410083E590E09EB98DB90895E6
:1004C00040E064E081E00E94B200089590E090BBBB
:1004D0008FB98EB19FB187FFFCCF8FB190B30895D4
:1004E00081B3826081BB81B38E7F81BB8AB188601A
:1004F0008AB98AB180618AB986E880BD87E689B900
:0E05000008955F9BFECF8CB10895F894FFCF55
:10050E004C45442031204F4E004C45442031204F65
:10051E004646004C45442032204F4E004C45442068
:10052E0032204F464600436865636B696E67205400
:04053E00656D700077
:00000001FF
